{
  "contractName": "HospitalRecords",
  "abi": [
    {
      "inputs": [],
      "stateMutability": "nonpayable",
      "type": "constructor"
    },
    {
      "anonymous": false,
      "inputs": [
        {
          "indexed": false,
          "internalType": "string",
          "name": "appointmentId",
          "type": "string"
        },
        {
          "indexed": false,
          "internalType": "string",
          "name": "patientId",
          "type": "string"
        },
        {
          "indexed": false,
          "internalType": "string",
          "name": "doctorId",
          "type": "string"
        },
        {
          "indexed": false,
          "internalType": "string",
          "name": "status",
          "type": "string"
        },
        {
          "indexed": false,
          "internalType": "uint256",
          "name": "timestamp",
          "type": "uint256"
        }
      ],
      "name": "AppointmentLogged",
      "type": "event"
    },
    {
      "anonymous": false,
      "inputs": [
        {
          "indexed": false,
          "internalType": "string",
          "name": "billId",
          "type": "string"
        },
        {
          "indexed": false,
          "internalType": "string",
          "name": "patientId",
          "type": "string"
        },
        {
          "indexed": false,
          "internalType": "uint256",
          "name": "amount",
          "type": "uint256"
        },
        {
          "indexed": false,
          "internalType": "string",
          "name": "status",
          "type": "string"
        },
        {
          "indexed": false,
          "internalType": "uint256",
          "name": "timestamp",
          "type": "uint256"
        },
        {
          "indexed": false,
          "internalType": "address",
          "name": "paidBy",
          "type": "address"
        }
      ],
      "name": "BillingLogged",
      "type": "event"
    },
    {
      "anonymous": false,
      "inputs": [
        {
          "indexed": false,
          "internalType": "string",
          "name": "patientId",
          "type": "string"
        },
        {
          "indexed": false,
          "internalType": "string",
          "name": "dataHash",
          "type": "string"
        },
        {
          "indexed": false,
          "internalType": "uint256",
          "name": "timestamp",
          "type": "uint256"
        }
      ],
      "name": "PatientRecordAdded",
      "type": "event"
    },
    {
      "anonymous": false,
      "inputs": [
        {
          "indexed": false,
          "internalType": "string",
          "name": "billId",
          "type": "string"
        },
        {
          "indexed": false,
          "internalType": "address",
          "name": "payer",
          "type": "address"
        },
        {
          "indexed": false,
          "internalType": "uint256",
          "name": "amount",
          "type": "uint256"
        },
        {
          "indexed": false,
          "internalType": "uint256",
          "name": "timestamp",
          "type": "uint256"
        }
      ],
      "name": "PaymentReceived",
      "type": "event"
    },
    {
      "anonymous": false,
      "inputs": [
        {
          "indexed": false,
          "internalType": "string",
          "name": "prescriptionId",
          "type": "string"
        },
        {
          "indexed": false,
          "internalType": "string",
          "name": "patientId",
          "type": "string"
        },
        {
          "indexed": false,
          "internalType": "string",
          "name": "doctorId",
          "type": "string"
        },
        {
          "indexed": false,
          "internalType": "uint256",
          "name": "timestamp",
          "type": "uint256"
        }
      ],
      "name": "PrescriptionLogged",
      "type": "event"
    },
    {
      "inputs": [
        {
          "internalType": "uint256",
          "name": "",
          "type": "uint256"
        }
      ],
      "name": "appointmentIds",
      "outputs": [
        {
          "internalType": "string",
          "name": "",
          "type": "string"
        }
      ],
      "stateMutability": "view",
      "type": "function",
      "constant": true
    },
    {
      "inputs": [
        {
          "internalType": "uint256",
          "name": "",
          "type": "uint256"
        }
      ],
      "name": "billIds",
      "outputs": [
        {
          "internalType": "string",
          "name": "",
          "type": "string"
        }
      ],
      "stateMutability": "view",
      "type": "function",
      "constant": true
    },
    {
      "inputs": [],
      "name": "owner",
      "outputs": [
        {
          "internalType": "address",
          "name": "",
          "type": "address"
        }
      ],
      "stateMutability": "view",
      "type": "function",
      "constant": true
    },
    {
      "inputs": [
        {
          "internalType": "uint256",
          "name": "",
          "type": "uint256"
        }
      ],
      "name": "patientIds",
      "outputs": [
        {
          "internalType": "string",
          "name": "",
          "type": "string"
        }
      ],
      "stateMutability": "view",
      "type": "function",
      "constant": true
    },
    {
      "inputs": [
        {
          "internalType": "uint256",
          "name": "",
          "type": "uint256"
        }
      ],
      "name": "prescriptionIds",
      "outputs": [
        {
          "internalType": "string",
          "name": "",
          "type": "string"
        }
      ],
      "stateMutability": "view",
      "type": "function",
      "constant": true
    },
    {
      "inputs": [
        {
          "internalType": "string",
          "name": "_patientId",
          "type": "string"
        },
        {
          "internalType": "string",
          "name": "_dataHash",
          "type": "string"
        }
      ],
      "name": "addPatientRecord",
      "outputs": [],
      "stateMutability": "nonpayable",
      "type": "function"
    },
    {
      "inputs": [
        {
          "internalType": "string",
          "name": "_patientId",
          "type": "string"
        }
      ],
      "name": "getPatientRecord",
      "outputs": [
        {
          "internalType": "string",
          "name": "",
          "type": "string"
        },
        {
          "internalType": "string",
          "name": "",
          "type": "string"
        },
        {
          "internalType": "uint256",
          "name": "",
          "type": "uint256"
        }
      ],
      "stateMutability": "view",
      "type": "function",
      "constant": true
    },
    {
      "inputs": [
        {
          "internalType": "string",
          "name": "_appointmentId",
          "type": "string"
        },
        {
          "internalType": "string",
          "name": "_patientId",
          "type": "string"
        },
        {
          "internalType": "string",
          "name": "_doctorId",
          "type": "string"
        },
        {
          "internalType": "string",
          "name": "_status",
          "type": "string"
        }
      ],
      "name": "logAppointment",
      "outputs": [],
      "stateMutability": "nonpayable",
      "type": "function"
    },
    {
      "inputs": [
        {
          "internalType": "string",
          "name": "_appointmentId",
          "type": "string"
        }
      ],
      "name": "getAppointment",
      "outputs": [
        {
          "internalType": "string",
          "name": "",
          "type": "string"
        },
        {
          "internalType": "string",
          "name": "",
          "type": "string"
        },
        {
          "internalType": "string",
          "name": "",
          "type": "string"
        },
        {
          "internalType": "string",
          "name": "",
          "type": "string"
        },
        {
          "internalType": "uint256",
          "name": "",
          "type": "uint256"
        }
      ],
      "stateMutability": "view",
      "type": "function",
      "constant": true
    },
    {
      "inputs": [
        {
          "internalType": "string",
          "name": "_billId",
          "type": "string"
        },
        {
          "internalType": "string",
          "name": "_patientId",
          "type": "string"
        },
        {
          "internalType": "uint256",
          "name": "_amount",
          "type": "uint256"
        },
        {
          "internalType": "string",
          "name": "_status",
          "type": "string"
        }
      ],
      "name": "logBilling",
      "outputs": [],
      "stateMutability": "nonpayable",
      "type": "function"
    },
    {
      "inputs": [
        {
          "internalType": "string",
          "name": "_billId",
          "type": "string"
        },
        {
          "internalType": "string",
          "name": "_patientId",
          "type": "string"
        }
      ],
      "name": "payBillOnChain",
      "outputs": [],
      "stateMutability": "payable",
      "type": "function",
      "payable": true
    },
    {
      "inputs": [
        {
          "internalType": "string",
          "name": "_billId",
          "type": "string"
        }
      ],
      "name": "getBilling",
      "outputs": [
        {
          "internalType": "string",
          "name": "",
          "type": "string"
        },
        {
          "internalType": "string",
          "name": "",
          "type": "string"
        },
        {
          "internalType": "uint256",
          "name": "",
          "type": "uint256"
        },
        {
          "internalType": "string",
          "name": "",
          "type": "string"
        },
        {
          "internalType": "uint256",
          "name": "",
          "type": "uint256"
        },
        {
          "internalType": "address",
          "name": "",
          "type": "address"
        }
      ],
      "stateMutability": "view",
      "type": "function",
      "constant": true
    },
    {
      "inputs": [
        {
          "internalType": "string",
          "name": "_prescriptionId",
          "type": "string"
        },
        {
          "internalType": "string",
          "name": "_patientId",
          "type": "string"
        },
        {
          "internalType": "string",
          "name": "_doctorId",
          "type": "string"
        },
        {
          "internalType": "string",
          "name": "_medicineHash",
          "type": "string"
        }
      ],
      "name": "logPrescription",
      "outputs": [],
      "stateMutability": "nonpayable",
      "type": "function"
    },
    {
      "inputs": [
        {
          "internalType": "string",
          "name": "_prescriptionId",
          "type": "string"
        }
      ],
      "name": "getPrescription",
      "outputs": [
        {
          "internalType": "string",
          "name": "",
          "type": "string"
        },
        {
          "internalType": "string",
          "name": "",
          "type": "string"
        },
        {
          "internalType": "string",
          "name": "",
          "type": "string"
        },
        {
          "internalType": "string",
          "name": "",
          "type": "string"
        },
        {
          "internalType": "uint256",
          "name": "",
          "type": "uint256"
        }
      ],
      "stateMutability": "view",
      "type": "function",
      "constant": true
    },
    {
      "inputs": [],
      "name": "getTotalPatients",
      "outputs": [
        {
          "internalType": "uint256",
          "name": "",
          "type": "uint256"
        }
      ],
      "stateMutability": "view",
      "type": "function",
      "constant": true
    },
    {
      "inputs": [],
      "name": "getTotalAppointments",
      "outputs": [
        {
          "internalType": "uint256",
          "name": "",
          "type": "uint256"
        }
      ],
      "stateMutability": "view",
      "type": "function",
      "constant": true
    },
    {
      "inputs": [],
      "name": "getTotalBills",
      "outputs": [
        {
          "internalType": "uint256",
          "name": "",
          "type": "uint256"
        }
      ],
      "stateMutability": "view",
      "type": "function",
      "constant": true
    },
    {
      "inputs": [],
      "name": "getTotalPrescriptions",
      "outputs": [
        {
          "internalType": "uint256",
          "name": "",
          "type": "uint256"
        }
      ],
      "stateMutability": "view",
      "type": "function",
      "constant": true
    }
  ],
  "bytecode": "0x608060405234801561001057600080fd5b50336000806101000a81548173ffffffffffffffffffffffffffffffffffffffff021916908373ffffffffffffffffffffffffffffffffffffffff160217905550612707806100606000396000f3fe6080604052600436106101095760003560e01c806372eaaf3311610095578063b4bcf76411610064578063b4bcf764146103b9578063c82e170c146103e2578063e747428b1461040b578063f497e18914610448578063f880cb391461047357610109565b806372eaaf33146102e5578063759daa1a146103105780638da5cb5b14610351578063b1250d5a1461037c57610109565b80633c6fa765116100dc5780633c6fa765146101e757806342146542146102125780634585516314610254578063536bfd231461027f578063687ce865146102a857610109565b806311bd30a11461010e57806315802c6a1461014d5780632b21e8081461018a5780632cbd1144146101cb575b600080fd5b34801561011a57600080fd5b5061013560048036038101906101309190611bef565b61049c565b60405161014493929190611cd0565b60405180910390f35b34801561015957600080fd5b50610174600480360381019061016f9190611d41565b6106a2565b6040516101819190611d6e565b60405180910390f35b34801561019657600080fd5b506101b160048036038101906101ac9190611bef565b61074e565b6040516101c2959493929190611d90565b60405180910390f35b6101e560048036038101906101e09190611dff565b610a01565b005b3480156101f357600080fd5b506101fc610bef565b6040516102099190611e77565b60405180910390f35b34801561021e57600080fd5b5061023960048036038101906102349190611bef565b610bfc565b60405161024b96959493929190611ed3565b60405180910390f35b34801561026057600080fd5b50610269610e87565b6040516102769190611e77565b60405180910390f35b34801561028b57600080fd5b506102a660048036038101906102a19190611f49565b610e94565b005b3480156102b457600080fd5b506102cf60048036038101906102ca9190611d41565b611046565b6040516102dc9190611d6e565b60405180910390f35b3480156102f157600080fd5b506102fa6110f2565b6040516103079190611e77565b60405180910390f35b34801561031c57600080fd5b5061033760048036038101906103329190611bef565b6110ff565b604051610348959493929190611d90565b60405180910390f35b34801561035d57600080fd5b506103666113b2565b6040516103739190612020565b60405180910390f35b34801561038857600080fd5b506103a3600480360381019061039e9190611d41565b6113d6565b6040516103b09190611d6e565b60405180910390f35b3480156103c557600080fd5b506103e060048036038101906103db919061203b565b611482565b005b3480156103ee57600080fd5b5061040960048036038101906104049190611f49565b61168f565b005b34801561041757600080fd5b50610432600480360381019061042d9190611d41565b61183f565b60405161043f9190611d6e565b60405180910390f35b34801561045457600080fd5b5061045d6118eb565b60405161046a9190611e77565b60405180910390f35b34801561047f57600080fd5b5061049a60048036038101906104959190611dff565b6118f8565b005b60608060006001846040516104b19190612132565b908152602001604051809103902060030160009054906101000a900460ff1661050f576040517f08c379a000000000000000000000000000000000000000000000000000000000815260040161050690612195565b60405180910390fd5b60006001856040516105219190612132565b908152602001604051809103902060405180608001604052908160008201805461054a906121e4565b80601f0160208091040260200160405190810160405280929190818152602001828054610576906121e4565b80156105c35780601f10610598576101008083540402835291602001916105c3565b820191906000526020600020905b8154815290600101906020018083116105a657829003601f168201915b505050505081526020016001820180546105dc906121e4565b80601f0160208091040260200160405190810160405280929190818152602001828054610608906121e4565b80156106555780601f1061062a57610100808354040283529160200191610655565b820191906000526020600020905b81548152906001019060200180831161063857829003601f168201915b50505050508152602001600282015481526020016003820160009054906101000a900460ff1615151515815250509050806000015181602001518260400151935093509350509193909250565b600581815481106106b257600080fd5b9060005260206000200160009150905080546106cd906121e4565b80601f01602080910402602001604051908101604052809291908181526020018280546106f9906121e4565b80156107465780601f1061071b57610100808354040283529160200191610746565b820191906000526020600020905b81548152906001019060200180831161072957829003601f168201915b505050505081565b6060806060806000806004876040516107679190612132565b90815260200160405180910390206040518060a0016040529081600082018054610790906121e4565b80601f01602080910402602001604051908101604052809291908181526020018280546107bc906121e4565b80156108095780601f106107de57610100808354040283529160200191610809565b820191906000526020600020905b8154815290600101906020018083116107ec57829003601f168201915b50505050508152602001600182018054610822906121e4565b80601f016020809104026020016040519081016040528092919081815260200182805461084e906121e4565b801561089b5780601f106108705761010080835404028352916020019161089b565b820191906000526020600020905b81548152906001019060200180831161087e57829003601f168201915b505050505081526020016002820180546108b4906121e4565b80601f01602080910402602001604051908101604052809291908181526020018280546108e0906121e4565b801561092d5780601f106109025761010080835404028352916020019161092d565b820191906000526020600020905b81548152906001019060200180831161091057829003601f168201915b50505050508152602001600382018054610946906121e4565b80601f0160208091040260200160405190810160405280929190818152602001828054610972906121e4565b80156109bf5780601f10610994576101008083540402835291602001916109bf565b820191906000526020600020905b8154815290600101906020018083116109a257829003601f168201915b50505050508152602001600482015481525050905080600001518160200151826040015183606001518460800151955095509550955095505091939590929450565b60003411610a44576040517f08c379a0000000000000000000000000000000000000000000000000000000008152600401610a3b90612261565b60405180910390fd5b6040518060400160405280600481526020017f7061696400000000000000000000000000000000000000000000000000000000815250600383604051610a8a9190612132565b90815260200160405180910390206003019081610aa7919061242d565b5033600383604051610ab99190612132565b908152602001604051809103902060050160006101000a81548173ffffffffffffffffffffffffffffffffffffffff021916908373ffffffffffffffffffffffffffffffffffffffff16021790555060008054906101000a900473ffffffffffffffffffffffffffffffffffffffff1673ffffffffffffffffffffffffffffffffffffffff166108fc349081150290604051600060405180830381858888f19350505050158015610b6e573d6000803e3d6000fd5b507fdf6519d3a50102ba57328e8e79560c63a9d8b9930c9981f70b3a055fe20441f582333442604051610ba494939291906124ff565b60405180910390a17f0a9750c5ef8199ae3ebbb0e2ff427fef0ca8ddaa95c4c1413478a944a0c87eab8282344233604051610be3959493929190612597565b60405180910390a15050565b6000600780549050905090565b606080600060606000806000600388604051610c189190612132565b90815260200160405180910390206040518060c0016040529081600082018054610c41906121e4565b80601f0160208091040260200160405190810160405280929190818152602001828054610c6d906121e4565b8015610cba5780601f10610c8f57610100808354040283529160200191610cba565b820191906000526020600020905b815481529060010190602001808311610c9d57829003601f168201915b50505050508152602001600182018054610cd3906121e4565b80601f0160208091040260200160405190810160405280929190818152602001828054610cff906121e4565b8015610d4c5780601f10610d2157610100808354040283529160200191610d4c565b820191906000526020600020905b815481529060010190602001808311610d2f57829003601f168201915b5050505050815260200160028201548152602001600382018054610d6f906121e4565b80601f0160208091040260200160405190810160405280929190818152602001828054610d9b906121e4565b8015610de85780601f10610dbd57610100808354040283529160200191610de8565b820191906000526020600020905b815481529060010190602001808311610dcb57829003601f168201915b50505050508152602001600482015481526020016005820160009054906101000a900473ffffffffffffffffffffffffffffffffffffffff1673ffffffffffffffffffffffffffffffffffffffff1673ffffffffffffffffffffffffffffffffffffffff16815250509050806000015181602001518260400151836060015184608001518560a001519650965096509650965096505091939550919395565b6000600880549050905090565b60008054906101000a900473ffffffffffffffffffffffffffffffffffffffff1673ffffffffffffffffffffffffffffffffffffffff163373ffffffffffffffffffffffffffffffffffffffff1614610f22576040517f08c379a0000000000000000000000000000000000000000000000000000000008152600401610f1990612657565b60405180910390fd5b6040518060a0016040528085815260200184815260200183815260200182815260200142815250600285604051610f599190612132565b90815260200160405180910390206000820151816000019081610f7c919061242d565b506020820151816001019081610f92919061242d565b506040820151816002019081610fa8919061242d565b506060820151816003019081610fbe919061242d565b5060808201518160040155905050600684908060018154018082558091505060019003906000526020600020016000909190919091509081611000919061242d565b507fe53eaba36f294c7ad386569e6de1187aaab2f930e2e785710acec54f850107738484848442604051611038959493929190611d90565b60405180910390a150505050565b6007818154811061105657600080fd5b906000526020600020016000915090508054611071906121e4565b80601f016020809104026020016040519081016040528092919081815260200182805461109d906121e4565b80156110ea5780601f106110bf576101008083540402835291602001916110ea565b820191906000526020600020905b8154815290600101906020018083116110cd57829003601f168201915b505050505081565b6000600680549050905090565b6060806060806000806002876040516111189190612132565b90815260200160405180910390206040518060a0016040529081600082018054611141906121e4565b80601f016020809104026020016040519081016040528092919081815260200182805461116d906121e4565b80156111ba5780601f1061118f576101008083540402835291602001916111ba565b820191906000526020600020905b81548152906001019060200180831161119d57829003601f168201915b505050505081526020016001820180546111d3906121e4565b80601f01602080910402602001604051908101604052809291908181526020018280546111ff906121e4565b801561124c5780601f106112215761010080835404028352916020019161124c565b820191906000526020600020905b81548152906001019060200180831161122f57829003601f168201915b50505050508152602001600282018054611265906121e4565b80601f0160208091040260200160405190810160405280929190818152602001828054611291906121e4565b80156112de5780601f106112b3576101008083540402835291602001916112de565b820191906000526020600020905b8154815290600101906020018083116112c157829003601f168201915b505050505081526020016003820180546112f7906121e4565b80601f0160208091040260200160405190810160405280929190818152602001828054611323906121e4565b80156113705780601f1061134557610100808354040283529160200191611370565b820191906000526020600020905b81548152906001019060200180831161135357829003601f168201915b50505050508152602001600482015481525050905080600001518160200151826040015183606001518460800151955095509550955095505091939590929450565b60008054906101000a900473ffffffffffffffffffffffffffffffffffffffff1681565b600881815481106113e657600080fd5b906000526020600020016000915090508054611401906121e4565b80601f016020809104026020016040519081016040528092919081815260200182805461142d906121e4565b801561147a5780601f1061144f5761010080835404028352916020019161147a565b820191906000526020600020905b81548152906001019060200180831161145d57829003601f168201915b505050505081565b60008054906101000a900473ffffffffffffffffffffffffffffffffffffffff1673ffffffffffffffffffffffffffffffffffffffff163373ffffffffffffffffffffffffffffffffffffffff1614611510576040517f08c379a000000000000000000000000000000000000000000000000000000000815260040161150790612657565b60405180910390fd5b6040518060c00160405280858152602001848152602001838152602001828152602001428152602001600073ffffffffffffffffffffffffffffffffffffffff168152506003856040516115649190612132565b90815260200160405180910390206000820151816000019081611587919061242d565b50602082015181600101908161159d919061242d565b506040820151816002015560608201518160030190816115bd919061242d565b506080820151816004015560a08201518160050160006101000a81548173ffffffffffffffffffffffffffffffffffffffff021916908373ffffffffffffffffffffffffffffffffffffffff160217905550905050600784908060018154018082558091505060019003906000526020600020016000909190919091509081611646919061242d565b507f0a9750c5ef8199ae3ebbb0e2ff427fef0ca8ddaa95c4c1413478a944a0c87eab8484848442600060405161168196959493929190611ed3565b60405180910390a150505050565b60008054906101000a900473ffffffffffffffffffffffffffffffffffffffff1673ffffffffffffffffffffffffffffffffffffffff163373ffffffffffffffffffffffffffffffffffffffff161461171d576040517f08c379a000000000000000000000000000000000000000000000000000000000815260040161171490612657565b60405180910390fd5b6040518060a00160405280858152602001848152602001838152602001828152602001428152506004856040516117549190612132565b90815260200160405180910390206000820151816000019081611777919061242d565b50602082015181600101908161178d919061242d565b5060408201518160020190816117a3919061242d565b5060608201518160030190816117b9919061242d565b50608082015181600401559050506008849080600181540180825580915050600190039060005260206000200160009091909190915090816117fb919061242d565b507fa8a5f3f710f83dee37e318716f01285238385f023cd8e4c7e9194ffa33bc5ae3848484426040516118319493929190612677565b60405180910390a150505050565b6006818154811061184f57600080fd5b90600052602060002001600091509050805461186a906121e4565b80601f0160208091040260200160405190810160405280929190818152602001828054611896906121e4565b80156118e35780601f106118b8576101008083540402835291602001916118e3565b820191906000526020600020905b8154815290600101906020018083116118c657829003601f168201915b505050505081565b6000600580549050905090565b60008054906101000a900473ffffffffffffffffffffffffffffffffffffffff1673ffffffffffffffffffffffffffffffffffffffff163373ffffffffffffffffffffffffffffffffffffffff1614611986576040517f08c379a000000000000000000000000000000000000000000000000000000000815260040161197d90612657565b60405180910390fd5b6040518060800160405280838152602001828152602001428152602001600115158152506001836040516119ba9190612132565b908152602001604051809103902060008201518160000190816119dd919061242d565b5060208201518160010190816119f3919061242d565b506040820151816002015560608201518160030160006101000a81548160ff021916908315150217905550905050600582908060018154018082558091505060019003906000526020600020016000909190919091509081611a55919061242d565b507f359b31e9e9a06d5d189f247f010a7ede9212448457fedd4784edd204412869d5828242604051611a8993929190611cd0565b60405180910390a15050565b6000604051905090565b600080fd5b600080fd5b600080fd5b600080fd5b6000601f19601f8301169050919050565b7f4e487b7100000000000000000000000000000000000000000000000000000000600052604160045260246000fd5b611afc82611ab3565b810181811067ffffffffffffffff82111715611b1b57611b1a611ac4565b5b80604052505050565b6000611b2e611a95565b9050611b3a8282611af3565b919050565b600067ffffffffffffffff821115611b5a57611b59611ac4565b5b611b6382611ab3565b9050602081019050919050565b82818337600083830152505050565b6000611b92611b8d84611b3f565b611b24565b905082815260208101848484011115611bae57611bad611aae565b5b611bb9848285611b70565b509392505050565b600082601f830112611bd657611bd5611aa9565b5b8135611be6848260208601611b7f565b91505092915050565b600060208284031215611c0557611c04611a9f565b5b600082013567ffffffffffffffff811115611c2357611c22611aa4565b5b611c2f84828501611bc1565b91505092915050565b600081519050919050565b600082825260208201905092915050565b60005b83811015611c72578082015181840152602081019050611c57565b60008484015250505050565b6000611c8982611c38565b611c938185611c43565b9350611ca3818560208601611c54565b611cac81611ab3565b840191505092915050565b6000819050919050565b611cca81611cb7565b82525050565b60006060820190508181036000830152611cea8186611c7e565b90508181036020830152611cfe8185611c7e565b9050611d0d6040830184611cc1565b949350505050565b611d1e81611cb7565b8114611d2957600080fd5b50565b600081359050611d3b81611d15565b92915050565b600060208284031215611d5757611d56611a9f565b5b6000611d6584828501611d2c565b91505092915050565b60006020820190508181036000830152611d888184611c7e565b905092915050565b600060a0820190508181036000830152611daa8188611c7e565b90508181036020830152611dbe8187611c7e565b90508181036040830152611dd28186611c7e565b90508181036060830152611de68185611c7e565b9050611df56080830184611cc1565b9695505050505050565b60008060408385031215611e1657611e15611a9f565b5b600083013567ffffffffffffffff811115611e3457611e33611aa4565b5b611e4085828601611bc1565b925050602083013567ffffffffffffffff811115611e6157611e60611aa4565b5b611e6d85828601611bc1565b9150509250929050565b6000602082019050611e8c6000830184611cc1565b92915050565b600073ffffffffffffffffffffffffffffffffffffffff82169050919050565b6000611ebd82611e92565b9050919050565b611ecd81611eb2565b82525050565b600060c0820190508181036000830152611eed8189611c7e565b90508181036020830152611f018188611c7e565b9050611f106040830187611cc1565b8181036060830152611f228186611c7e565b9050611f316080830185611cc1565b611f3e60a0830184611ec4565b979650505050505050565b60008060008060808587031215611f6357611f62611a9f565b5b600085013567ffffffffffffffff811115611f8157611f80611aa4565b5b611f8d87828801611bc1565b945050602085013567ffffffffffffffff811115611fae57611fad611aa4565b5b611fba87828801611bc1565b935050604085013567ffffffffffffffff811115611fdb57611fda611aa4565b5b611fe787828801611bc1565b925050606085013567ffffffffffffffff81111561200857612007611aa4565b5b61201487828801611bc1565b91505092959194509250565b60006020820190506120356000830184611ec4565b92915050565b6000806000806080858703121561205557612054611a9f565b5b600085013567ffffffffffffffff81111561207357612072611aa4565b5b61207f87828801611bc1565b945050602085013567ffffffffffffffff8111156120a05761209f611aa4565b5b6120ac87828801611bc1565b93505060406120bd87828801611d2c565b925050606085013567ffffffffffffffff8111156120de576120dd611aa4565b5b6120ea87828801611bc1565b91505092959194509250565b600081905092915050565b600061210c82611c38565b61211681856120f6565b9350612126818560208601611c54565b80840191505092915050565b600061213e8284612101565b915081905092915050565b7f5265636f7264206e6f7420666f756e6400000000000000000000000000000000600082015250565b600061217f601083611c43565b915061218a82612149565b602082019050919050565b600060208201905081810360008301526121ae81612172565b9050919050565b7f4e487b7100000000000000000000000000000000000000000000000000000000600052602260045260246000fd5b600060028204905060018216806121fc57607f821691505b60208210810361220f5761220e6121b5565b5b50919050565b7f4d7573742073656e642045544800000000000000000000000000000000000000600082015250565b600061224b600d83611c43565b915061225682612215565b602082019050919050565b6000602082019050818103600083015261227a8161223e565b9050919050565b60008190508160005260206000209050919050565b60006020601f8301049050919050565b600082821b905092915050565b6000600883026122e37fffffffffffffffffffffffffffffffffffffffffffffffffffffffffffffffff826122a6565b6122ed86836122a6565b95508019841693508086168417925050509392505050565b6000819050919050565b600061232a61232561232084611cb7565b612305565b611cb7565b9050919050565b6000819050919050565b6123448361230f565b61235861235082612331565b8484546122b3565b825550505050565b600090565b61236d612360565b61237881848461233b565b505050565b5b8181101561239c57612391600082612365565b60018101905061237e565b5050565b601f8211156123e1576123b281612281565b6123bb84612296565b810160208510156123ca578190505b6123de6123d685612296565b83018261237d565b50505b505050565b600082821c905092915050565b6000612404600019846008026123e6565b1980831691505092915050565b600061241d83836123f3565b9150826002028217905092915050565b61243682611c38565b67ffffffffffffffff81111561244f5761244e611ac4565b5b61245982546121e4565b6124648282856123a0565b600060209050601f8311600181146124975760008415612485578287015190505b61248f8582612411565b8655506124f7565b601f1984166124a586612281565b60005b828110156124cd578489015182556001820191506020850194506020810190506124a8565b868310156124ea57848901516124e6601f8916826123f3565b8355505b6001600288020188555050505b505050505050565b600060808201905081810360008301526125198187611c7e565b90506125286020830186611ec4565b6125356040830185611cc1565b6125426060830184611cc1565b95945050505050565b7f7061696400000000000000000000000000000000000000000000000000000000600082015250565b6000612581600483611c43565b915061258c8261254b565b602082019050919050565b600060c08201905081810360008301526125b18188611c7e565b905081810360208301526125c58187611c7e565b90506125d46040830186611cc1565b81810360608301526125e581612574565b90506125f46080830185611cc1565b61260160a0830184611ec4565b9695505050505050565b7f4e6f7420617574686f72697a6564000000000000000000000000000000000000600082015250565b6000612641600e83611c43565b915061264c8261260b565b602082019050919050565b6000602082019050818103600083015261267081612634565b9050919050565b600060808201905081810360008301526126918187611c7e565b905081810360208301526126a58186611c7e565b905081810360408301526126b98185611c7e565b90506126c86060830184611cc1565b9594505050505056fea26469706673582212205469dd5c4c464510a9b3048e2b2f69c775a6178092c89335da8158cf5477613764736f6c63430008130033",
  "immutableReferences": {},
  "source": "// SPDX-License-Identifier: MIT\npragma solidity ^0.8.19;\n\ncontract HospitalRecords {\n    address public owner;\n\n    struct PatientRecord {\n        string patientId;\n        string dataHash;\n        uint256 timestamp;\n        bool exists;\n    }\n\n    struct AppointmentRecord {\n        string appointmentId;\n        string patientId;\n        string doctorId;\n        string status;\n        uint256 timestamp;\n    }\n\n    struct BillingRecord {\n        string billId;\n        string patientId;\n        uint256 amount;\n        string status;\n        uint256 timestamp;\n        address paidBy;\n    }\n\n    struct PrescriptionRecord {\n        string prescriptionId;\n        string patientId;\n        string doctorId;\n        string medicineHash;\n        uint256 timestamp;\n    }\n\n    mapping(string => PatientRecord) private patientRecords;\n    mapping(string => AppointmentRecord) private appointmentRecords;\n    mapping(string => BillingRecord) private billingRecords;\n    mapping(string => PrescriptionRecord) private prescriptionRecords;\n\n    string[] public patientIds;\n    string[] public appointmentIds;\n    string[] public billIds;\n    string[] public prescriptionIds;\n\n    event PatientRecordAdded(string patientId, string dataHash, uint256 timestamp);\n    event AppointmentLogged(string appointmentId, string patientId, string doctorId, string status, uint256 timestamp);\n    event BillingLogged(string billId, string patientId, uint256 amount, string status, uint256 timestamp, address paidBy);\n    event PrescriptionLogged(string prescriptionId, string patientId, string doctorId, uint256 timestamp);\n    event PaymentReceived(string billId, address payer, uint256 amount, uint256 timestamp);\n\n    modifier onlyOwner() {\n        require(msg.sender == owner, \"Not authorized\");\n        _;\n    }\n\n    constructor() {\n        owner = msg.sender;\n    }\n\n    function addPatientRecord(string memory _patientId, string memory _dataHash) public onlyOwner {\n        patientRecords[_patientId] = PatientRecord(_patientId, _dataHash, block.timestamp, true);\n        patientIds.push(_patientId);\n        emit PatientRecordAdded(_patientId, _dataHash, block.timestamp);\n    }\n\n    function getPatientRecord(string memory _patientId) public view returns (string memory, string memory, uint256) {\n        require(patientRecords[_patientId].exists, \"Record not found\");\n        PatientRecord memory r = patientRecords[_patientId];\n        return (r.patientId, r.dataHash, r.timestamp);\n    }\n\n    function logAppointment(string memory _appointmentId, string memory _patientId, string memory _doctorId, string memory _status) public onlyOwner {\n        appointmentRecords[_appointmentId] = AppointmentRecord(_appointmentId, _patientId, _doctorId, _status, block.timestamp);\n        appointmentIds.push(_appointmentId);\n        emit AppointmentLogged(_appointmentId, _patientId, _doctorId, _status, block.timestamp);\n    }\n\n    function getAppointment(string memory _appointmentId) public view returns (string memory, string memory, string memory, string memory, uint256) {\n        AppointmentRecord memory a = appointmentRecords[_appointmentId];\n        return (a.appointmentId, a.patientId, a.doctorId, a.status, a.timestamp);\n    }\n\n    function logBilling(string memory _billId, string memory _patientId, uint256 _amount, string memory _status) public onlyOwner {\n        billingRecords[_billId] = BillingRecord(_billId, _patientId, _amount, _status, block.timestamp, address(0));\n        billIds.push(_billId);\n        emit BillingLogged(_billId, _patientId, _amount, _status, block.timestamp, address(0));\n    }\n\n    function payBillOnChain(string memory _billId, string memory _patientId) public payable {\n        require(msg.value > 0, \"Must send ETH\");\n        billingRecords[_billId].status = \"paid\";\n        billingRecords[_billId].paidBy = msg.sender;\n        payable(owner).transfer(msg.value);\n        emit PaymentReceived(_billId, msg.sender, msg.value, block.timestamp);\n        emit BillingLogged(_billId, _patientId, msg.value, \"paid\", block.timestamp, msg.sender);\n    }\n\n    function getBilling(string memory _billId) public view returns (string memory, string memory, uint256, string memory, uint256, address) {\n        BillingRecord memory b = billingRecords[_billId];\n        return (b.billId, b.patientId, b.amount, b.status, b.timestamp, b.paidBy);\n    }\n\n    function logPrescription(string memory _prescriptionId, string memory _patientId, string memory _doctorId, string memory _medicineHash) public onlyOwner {\n        prescriptionRecords[_prescriptionId] = PrescriptionRecord(_prescriptionId, _patientId, _doctorId, _medicineHash, block.timestamp);\n        prescriptionIds.push(_prescriptionId);\n        emit PrescriptionLogged(_prescriptionId, _patientId, _doctorId, block.timestamp);\n    }\n\n    function getPrescription(string memory _prescriptionId) public view returns (string memory, string memory, string memory, string memory, uint256) {\n        PrescriptionRecord memory p = prescriptionRecords[_prescriptionId];\n        return (p.prescriptionId, p.patientId, p.doctorId, p.medicineHash, p.timestamp);\n    }\n\n    function getTotalPatients() public view returns (uint256) { return patientIds.length; }\n    function getTotalAppointments() public view returns (uint256) { return appointmentIds.length; }\n    function getTotalBills() public view returns (uint256) { return billIds.length; }\n    function getTotalPrescriptions() public view returns (uint256) { return prescriptionIds.length; }\n}\n",
  "sourcePath": "/Users/esharahman/Desktop/CN6035 (T2) Mobile and D Systems/Coursework/hospital-system-main/blockchain/contracts/HospitalRecords.sol",
  "compiler": {
    "name": "solc",
    "version": "0.8.19+commit.7dd6d404.Emscripten.clang"
  },
  "schemaVersion": "3.4.16",
  "updatedAt": "2026-04-16T15:27:45.542Z",
  "networkType": "ethereum",
  "devdoc": {
    "kind": "dev",
    "methods": {},
    "version": 1
  },
  "userdoc": {
    "kind": "user",
    "methods": {},
    "version": 1
  }
}